:08000000803102288731F52F41
:100E6800163021009700080079082000A3007808B0
:100E7800A200080079082000A1007808A000080056
:100E88004030240094003030950092010800703002
:100E9800210099009A0198011A1B0800502F083068
:100EA80023009F0090309D0004309E008A309B00F4
:100EB8009C01080087318B27873187314B27873181
:100EC8008731342787318731442787318731532742
:100ED800080087315E2787318B178B15210017147F
:100EE80064002700961F722F20008E171530FC0013
:100EF8004B30FB00BE30890B7F2FFB0B7F2FFC0B89
:100F08007F2F003220008E1327009613722F2200A5
:100F18008C018D018E01273021008C00C0308D009E
:100F28001F308E00CF3023008E0030308D001730F8
:100F38008C00F03024008D003F308C00EF308E00A4
:100F48002100951325008C018D018E0127001613B1
:100F5800961315139513141394130030F8000030EA
:100F6800F9008731382787310030F8000030F90060
:100F780087313E27873100308B1B0130FA008B13F5
:100F880055303C008F00AA308F000F102408E0393C
:100F98000E38A4003D001408E039123894001C08EB
:100FA800E03914389C003C002108E0390538A100DC
:100FB8002008E0391538A0003D001D08E039143834
:100FC8009D002508E0391038A50055303C008F00F9
:100FD800AA308F000F147A1CF32F8B1708008B137D
:100FE8000800F001F101F201F301F401F501F60145
:100FF800F701200087316D2F003400343834003475
:101008003C3400340E3400340634003406346F3473
:1010180086346F34C6340134EE3400347C34003402
:1010280038340034003400340034003400340034E0
:101038000034003400340034003400340034003408
:1010480000340034003400340034003400340034F8
:101058000034003400340034003400340034703478
:1010680000347E34C0340F34F8340D343E340C343C
:101078003E340C34F8340D34C0340F3400347E342C
:10108800003470340034003400340034FE347F34CB
:10109800FE347F3486346134863461348634613476
:1010A80086346134CE346134FC34733478343F345C
:1010B80000341E340034003400340034E034073483
:1010C800F8341F341C3438340E3470340634603429
:1010D80006346034063460340E3470341C343834CA
:1010E800183418340034003400340034FE347F34AB
:1010F800FE347F3406346034063460340634603499
:10110800063460340E3470341C343834F8341F34E8
:10111800E03407340034003400340034FE347F34C3
:10112800FE347F34863461348634613486346134E5
:1011380086346134863461348634613406346034EC
:10114800063460340034003400340034FE347F3414
:10115800FE347F34863401348634013486340134D5
:10116800863401348634013486340134063400343C
:10117800063400340034003400340034E0340734DA
:10118800F8341F341C3438340E3470340634603468
:101198008634613486346134863461348E347F34E5
:1011A8008C347F340034003400340034FE347F340F
:1011B800FE347F3480340134803401348034013487
:1011C800803401348034013480340134FE347F3477
:1011D800FE347F34003400340034003400340034EA
:1011E800003400340634603406346034FE347F340E
:1011F800FE347F34063460340634603400340034FE
:1012080000340034003400340034003400341C341A
:1012180000343C34003470340034603400346034BA
:10122800003460340034603400347034FE343F34A9
:10123800FE340F340034003400340034FE347F347C
:10124800FE347F3480340134C0340334E03407344E
:1012580070340E3438341C341C3438340E34703442
:10126800063460340034003400340034FE347F34F3
:10127800FE347F3400346034003460340034603429
:101288000034603400346034003460340034603436
:10129800003460340034003400340034FE347F34C9
:1012A800FE347F343C340034F0340034C03403342A
:1012B800C0340334F03400343C340034FE347F341A
:1012C800FE347F340034003400340034FE347F347C
:1012D800FE347F341C34003470340034E03401347C
:1012E8008034073400340E3400343834FE347F340C
:1012F800FE347F340034003400340034E0340734E2
:10130800F8341F341C3438340E34703406346034E6
:10131800063460340E3470341C343834F8341F34D6
:10132800E03407340034003400340034FE347F34B1
:10133800FE347F340634033406340334063403346D
:1013480006340334063403348E340334FC34013455
:10135800F83400340034003400340034E034073406
:10136800F8341F341C3438340E3470340634603486
:1013780006346C340E347C341C343834F8347F34FE
:10138800E03467340034003400340034FE347F34F1
:10139800FE347F3406340334063403340634073409
:1013A80006340F3406341F348E343B34FC34713425
:1013B800F83460340034003400340034783418349D
:1013C800FC343834CE347134863461348634613434
:1013D80086346134863461348E3473341C343F343B
:1013E80018341E340034003400340034003400341F
:1013F800063400340634003406340034FE347F34B6
:10140800FE347F34063400340634003406340034A5
:10141800003400340034003400340034FE340F3417
:10142800FE343F34003470340034603400346034A7
:10143800003460340034603400347034FE343F3497
:10144800FE340F3400340034003400340E340034D9
:101458007E340034F034033480341F3400347C3458
:1014680000347C3480341F34F03403347E34003448
:101478000E3400340034003400340034FE347F3439
:10148800FE347F340034383400340C3400340734EC
:101498000034073400340C3400343834FE347F34DC
:1014A800FE347F34003400340034003406346034B1
:1014B8001E34783438341C3460340634C034033471
:1014C800C03403346034063438341C341E34783461
:1014D80006346034003400340034003406340034F8
:1014E8001E34003478340034E034013480347F34DE
:1014F80080347F34E0340134783400341E340034CE
:1015080006340034003400340034003406346034C7
:101518000634783406347C340634663486346334CE
:10152800C6346134663460343E3460341E3460340A
:10153800063460340034003400340034003400349D
:10154800803401348034013480340134F0340F3471
:10155800F0340F3480340134803401348034013461
:10156800003400340034003400340034F0340F34D4
:10157800FC343F340C343C3406346634063463346B
:1015880086346134C6346034663460343C34303474
:10159800FC343F34F0340F34003400340034003469
:1015A80018346034183460341C346034FE347F34AA
:1015B800FE347F34003460340034603400346034E6
:1015C80000340034003400340034003438346034DB
:1015D8003C3470340E34783406347C3406346E343B
:1015E8000634673486346334C6346134EE34603488
:1015F8007C3460343834603400340034183418349F
:101608001C3438340E347034863461348634613492
:10161800863461348634613486346134CE3473342C
:10162800FC343E3478341C340034003480340734BD
:10163800C0340734E03406347034063438340634A1
:101648001C3406340E340634FE347F34FE347F34C2
:101658000034063400340634003400347E34183440
:10166800FE343834C6347034C6346034C63460341A
:10167800C6346034C6346034C6346034C634713419
:1016880086343F3406341F340034003480341F3429
:10169800E0343F34F0347334B83461349C3461340A
:1016A8008E346134863461348634613486347334DC
:1016B80000343F3400341E3400340034063400341F
:1016C8000634003406340034063460340634783482
:1016D80006341E3486340734E63401347E3400344C
:1016E8001E340034063400340034003400341E3410
:1016F80078343F34FC347334CE3461348634613406
:101708008634613486346134CE346134FC347334C5
:1017180078343F3400341E340034003478340034D4
:10172800FC340034CE346134863461348634613418
:10173800863471348634393486341D34CE340F34CB
:10174800FC340734F83401348F34F134C134833431
:10175800FD34BF34FD34BF343C343C341C3438349D
:101768008E347134CF34F334CF34F3348E3471344F
:101778001C3438343C343C34FD34BF34FD34BF347D
:10178800C13483348F34F13480340134C0340334A9
:10179800FC343F34FC343F343C343C341C3438345F
:1017A8000E3470340F34F0340F34F0340E34703497
:1017B8001C3438343C343C34FC343F34FC343F343F
:1017C800C03403348034013400340034003400342D
:1017D800E0340034C0340134803403340034073436
:1017E80000340E340034073480340334C0340134F8
:1017F800E034003470340034383400341C3400349D
:1018080000340034003400341F34F8340134803498
:10181800E1348034C1348134813483340034073472
:1018280000340E340034073480340334C0340134B7
:10183800E034003471348034393480341D348034D9
:10184800013480341F34F834003400340034003458
:101858000C3430341C34383438341C3470340E347E
:10186800E0340734C0340334C0340334E03407347C
:1018780070340E3438341C341C3438340C3430345E
:1018880000340034003400341F34F8340134803418
:101898000D34B0341D34B83439349C3470340E34BB
:1018A800E0340734C0340334C0340334E03407343C
:1018B80070340E3439349C341D34B8340D34B0349B
:1018C800013480341F34F83400340034FF340734D2
:1018D800073405348D340434593404343134043431
:1018E80061340434C134043461340434313404348C
:1018F800593404348D34043407340534FF34073440
:1019080000340034003400347C347C34FF34013437
:101918000134013401340134013401340134013417
:101928000134013401340134013401340134013407
:10193800FF347C347C34FF34013401340134013405
:1019480001340134013401340134013401340134E7
:1019580001347D347D347D340134FF347C347C346F
:10196800FF340134013401340134013401340134C9
:10197800013401347D347D347D3401347D347D344B
:101988007D340134FF347C347C34FF340134013439
:101998000134013401347D347D347D3401347D34A7
:1019A8007D347D3401347D347D347D340134FF341D
:1019B8007C347C34FF3401347D347D347D3401340F
:1019C8007D347D347D3401347D347D347D3401347F
:1019D8007D347D347D340134FF34003400340134E7
:1019E8000134013401340134013401340134013447
:1019F8000134013401340134013401340134013437
:101A08000134013423341334083464346234003428
:101A18003E345134493445343E3400340034423481
:101A28007F34403400340034423461345134493412
:101A3800463400342134413445344B343134003495
:101A48001834143412347F341034003427344534B5
:101A580045344534393400343C344A344934493403
:101A6800303400340134713409340534033400341B
:101A78003634493449344934363400340634493428
:101A8800493429341E340034FC34003478340034AA
:101A98003034003430340034FF340334FE3401343D
:101AA800FC3400347834003478340034783400342A
:101AB800783400347834003430340034003400345E
:101AC800003400340034003400343C347E347E3436
:101AD8007E347E343C34003400343C346634423442
:081AE800423466343C34003442
:020000040001F9
:04000E00ECFFFFFF05
:00000001FF
