:08000000803102288731FD2F39
:100F300016302100970008008731B22787319F2F94
:100F40007A30210099009A019801080008302300A6
:100F50009F0090309D0004309E00A0309B00013027
:100F60009C0008008731BE2787318731A027873151
:100F70008731982787318731A627080022008C0106
:100F80008D018E01373021008C00E0308D00FF3064
:100F90008E00CF3023008E0010308D0017308C0073
:100FA000F03024008D003F308C00FF308E00210097
:100FB000951325008C018D018E0100308B1B0130B3
:100FC000F0008B1355303C008F00AA308F000F10BB
:100FD0002408E0390D38A4003D001C08E03914381D
:100FE0009C0055303C008F00AA308F000F14701CFD
:100FF000FB2F8B1708008B130800200087319C2FD4
:020000040001F9
:04000E00FCFFFFFFF5
:00000001FF
