:08000000803102288731FD2F39
:100F040016302100970008008731A2278731892FE6
:100F14007A30210099009A01980108004030240099
:100F240094003030950092010800083023009F009F
:100F340090309D0004309E0044309B009C010800CA
:100F44008731B127873187318A27873187318227D3
:100F5400873187319027873187319727080022000E
:100F64008C018D018E01373021008C00F0308D0012
:100F7400F9308E00CB3023008E008D0117308C00A9
:100F8400F03024008D003F308C00FF308E002100B3
:100F9400951325008C018D018E0100308B1B0130CF
:100FA400F0008B1355303C008F00AA308F000F10D7
:100FB4003D002108E0391238A1003C002408E03942
:100FC4000D38A4003D002208E0391038A2003C008E
:100FD4002108E0390C38A1002008E0391238A000BB
:100FE40055308F00AA308F000F14701CFB2F8B1705
:0C0FF40008008B13080020008731862FB6
:020000040001F9
:04000E00FCFFFFFFF5
:00000001FF
