:0400000080311A2809
:100008007E14803120007F08F7008B1A0B1D102802
:1000180086313D26803115288B190B1C1528863111
:10002800782677082000FF007E10090080311C2800
:10003800F001F101F201F301F401F501F6012000EC
:10004800A001A101A201A3017E1020008531EC2DA1
:1000580000340034383400343C3400340E34003476
:100068000634003406346F3486346F34C6340134B1
:10007800EE3400347C340034383400340034003436
:1000880000340034003400340034003400340034C8
:1000980000340034003400340034003400340034B8
:1000A80000340034003400340034003400340034A8
:1000B800003400340034703400347E34C0340F34DB
:1000C800F8340D343E340C343E340C34F8340D34EA
:1000D800C0340F3400347E340034703400340034BB
:1000E80000340034FE347F34FE347F348634613487
:1000F800863461348634613486346134CE34613474
:10010800FC34733478343F3400341E340034003403
:1001180000340034E0340734F8341F341C343834E5
:100128000E34703406346034063460340634603477
:100138000E3470341C343834183418340034003415
:1001480000340034FE347F34FE347F3406346034A7
:100158000634603406346034063460340E34703447
:100168001C343834F8341F34E03407340034003495
:1001780000340034FE347F34FE347F3486346134F6
:10018800863461348634613486346134863461342B
:100198008634613406346034063460340034003404
:1001A80000340034FE347F34FE347F348634013426
:1001B800863401348634013486340134863401347B
:1001C80086340134063400340634003400340034F4
:1001D80000340034E0340734F8341F341C34383425
:1001E8000E347034063460348634613486346134B5
:1001F800863461348E347F348C347F340034003458
:1002080000340034FE347F34FE347F3480340134CB
:100218008034013480340134803401348034013432
:1002280080340134FE347F34FE347F3400340034AB
:1002380000340034003400340034003406346034B0
:1002480006346034FE347F34FE347F340634603440
:100258000634603400340034003400340034003490
:100268000034003400341C3400343C34003470341E
:100278000034603400346034003460340034603456
:1002880000347034FE343F34FE340F34003400340C
:1002980000340034FE347F34FE347F34803401343B
:1002A800C0340334E034073470340E3438341C342A
:1002B8001C3438340E34703406346034003400345E
:1002C80000340034FE347F34FE347F34003460342C
:1002D80000346034003460340034603400346034F6
:1002E8000034603400346034003460340034003446
:1002F80000340034FE347F34FE347F343C34003420
:10030800F0340034C0340334C0340334F0340034DF
:100318003C340034FE347F34FE347F3400340034FF
:1003280000340034FE347F34FE347F341C3400340F
:1003380070340034E03401348034073400340E342F
:1003480000343834FE347F34FE347F3400340034D3
:1003580000340034E0340734F8341F341C343834A3
:100368000E34703406346034063460340E3470341D
:100378001C343834F8341F34E03407340034003483
:1003880000340034FE347F34FE347F3406340334C2
:100398000634033406340334063403340634033491
:1003A8008E340334FC340134F8340034003400341F
:1003B80000340034E0340734F8341F341C34383443
:1003C8000E3470340634603406346C340E347C34A5
:1003D8001C343834F8347F34E03467340034003463
:1003E80000340034FE347F34FE347F340634033462
:1003F800063403340634073406340F3406341F3405
:100408008E343B34FC347134F834603400340034B6
:100418000034003478341834FC343834CE34713431
:100428008634613486346134863461348634613488
:100438008E3473341C343F3418341E340034003482
:1004480000340034003400340634003406340034F8
:1004580006340034FE347F34FE347F3406340034EE
:1004680006340034063400340034003400340034D8
:1004780000340034FE340F34FE343F34003470341A
:100488000034603400346034003460340034603444
:1004980000347034FE343F34FE340F3400340034FA
:1004A800003400340E3400347E340034F034033425
:1004B80080341F3400347C3400347C3480341F345E
:1004C800F03403347E3400340E3400340034003405
:1004D80000340034FE347F34FE347F340034383442
:1004E80000340C34003407340034073400340C343E
:1004F80000343834FE347F34FE347F340034003422
:1005080000340034063460341E34783438341C34F3
:1005180060340634C0340334C034033460340634E1
:1005280038341C341E3478340634603400340034D3
:1005380000340034063400341E3400347834003477
:10054800E034013480347F3480347F34E034013443
:10055800783400341E340034063400340034003457
:1005680000340034063460340634783406347C347D
:100578000634663486346334C63461346634603491
:100588003E3460341E346034063460340034003441
:1005980000340034003400348034013480340134B1
:1005A80080340134F0340F34F0340F3480340134A3
:1005B8008034013480340134003400340034003491
:1005C80000340034F0340F34FC343F340C343C3401
:1005D800063466340634633486346134C634603491
:1005E800663460343C343034FC343F34F0340F34F7
:1005F8000034003400340034183460341834603463
:100608001C346034FE347F34FE347F34003460346C
:100618000034603400346034003400340034003472
:1006280000340034383460343C3470340E34783458
:1006380006347C3406346E340634673486346334C6
:10064800C6346134EE3460347C3460343834603419
:1006580000340034183418341C3438340E347034F0
:100668008634613486346134863461348634613446
:1006780086346134CE347334FC343E3478341C34DC
:100688000034003480340734C0340734E03406348E
:1006980070340634383406341C3406340E340634C8
:1006A800FE347F34FE347F3400340634003406349C
:1006B800003400347E341834FE343834C634703490
:1006C800C6346034C6346034C6346034C6346034EA
:1006D800C6346034C634713486343F3406341F342B
:1006E8000034003480341F34E0343F34F034733441
:1006F800B83461349C3461348E3461348634613466
:10070800863461348634733400343F3400341E3404
:10071800003400340634003406340034063400341F
:10072800063460340634783406341E34863407348C
:10073800E63401347E3400341E3400340634003488
:100748000034003400341E3478343F34FC347334BD
:10075800CE3461348634613486346134863461340D
:10076800CE346134FC34733478343F3400341E346E
:100778000034003478340034FC340034CE3461342E
:10078800863461348634613486347134863439343D
:1007980086341D34CE340F34FC340734F834013435
:1007A8008F34F134C1348334FD34BF34FD34BF3465
:1007B8003C343C341C3438348E347134CF34F33404
:1007C800CF34F3348E3471341C3438343C343C34F4
:1007D800FD34BF34FD34BF34C13483348F34F13435
:1007E80080340134C0340334FC343F34FC343F34A7
:1007F8003C343C341C3438340E3470340F34F03408
:100808000F34F0340E3470341C3438343C343C34F7
:10081800FC343F34FC343F34C03403348034013476
:100828000034003400340034E0340034C03401347F
:10083800803403340034073400340E340034073471
:1008480080340334C0340134E0340034703400346C
:10085800383400341C34003400340034003400349C
:100868001F34F83401348034E1348034C1348134A5
:10087800813483340034073400340E3400340734B0
:1008880080340334C0340134E034003471348034AB
:10089800393480341D348034013480341F34F834C2
:1008A80000340034003400340C3430341C34383410
:1008B80038341C3470340E34E0340734C034033414
:1008C800C0340334E034073470340E3438341C3404
:1008D8001C3438340C3430340034003400340034E0
:1008E8001F34F834013480340D34B0341D34B83436
:1008F80039349C3470340E34E0340734C034033453
:10090800C0340334E034073470340E3439349C3442
:100918001D34B8340D34B034013480341F34F83405
:1009280000340034FF340734073405348D3404347C
:10093800593404343134043461340434C134043453
:100948006134043431340434593404348D34043477
:1009580007340534FF3407340034003400340034DD
:100968007C347C34FF3401340134013401340134E3
:1009780001340134013401340134013401340134C7
:100988000134013401340134FF347C347C34FF34C5
:1009980001340134013401340134013401340134A7
:1009A800013401340134013401347D347D347D3423
:1009B8000134FF347C347C34FF3401340134013495
:1009C8000134013401340134013401347D347D347F
:1009D8007D3401347D347D347D340134FF347C34FE
:1009E8007C34FF34013401340134013401347D3462
:1009F8007D347D3401347D347D347D3401347D345F
:100A08007D347D340134FF347C347C34FF3401344C
:100A18007D347D347D3401347D347D347D3401343E
:100A28007D347D347D3401347D347D347D3401342E
:100A3800FF3400340034013401340134013401340A
:100A480001340134013401340134013401340134F6
:100A580001340134013401340134013422008C01A1
:100A68008D018E01173021008C0050308D007F30B1
:100A78008E004F3023008E008D0106308C004030F0
:100A880024008D000B308C004F308E002100951310
:100A980025008C018D018E012700161315131413E0
:100AA8008830F8000630F9008631722685318B15BA
:100AB80000308B1B0130FA008B1355303C008F003F
:100AC800AA308F000F102408E0390C38A400210840
:100AD800E0390438A100E03091052008E0390538F4
:100AE800A0003D001508E039103895001D08E039D0
:100AF80014389D0055303C008F00AA308F000F1429
:100B08007A1C882D8B1708008B13080023341334A4
:100B180008346434623400343E3451344934453442
:100B28003E340034003442347F34403400340034DE
:100B38004234613451344934463400342134413428
:100B480045344B34313400341834143412347F347F
:100B580010340034273445344534453439340034AE
:100B68003C344A3449344934303400340134713423
:100B780009340534033400343634493449344934AB
:100B88003634003406344934493429341E340034A8
:100B9800FC340034783400343034003430340034D9
:100BA800FF340334FE340134FC3400347834003428
:100BB80078340034783400347834003478340034AD
:100BC800303400340034003400340034003400344D
:100BD80086310A2685318B178B152100171464007E
:100BE8002700961FF12D20008E171530FC004B3082
:100BF800FB00BE30890BFE2DFB0BFE2DFC0BFE2DE2
:100C0800003220008E1327009613F12D85313225EE
:100C1800863186316426863186318326863186314F
:100C28006C26863186311C26863186315826080086
:100C380021001508C0393F38950020009501F201C0
:100C48000B118B168730F8000630F90086317E26A6
:100C5800080000343C347E347E347E347E343C34A8
:100C6800003400343C3466344234423466343C3414
:100C780000340B11720820009500700871040319E4
:100C8800080071088A0070080A00863108002000F0
:100C9800240825040319552E25088A0024080A006B
:100CA8008631270016130800083023009F00903073
:100CB8009D0004309E0040309B0003309C000800DB
:100CC8007030210099009A0198011A1B0800692EBA
:100CD8002400940120309500920108007908200032
:100CE800A5007808A40008002700161F0800863110
:100CF8004B2608007908F1007808F0000800163043
:0A0D08002100970008000800080011
:020000040001F9
:04000E00ECFFFFFF05
:00000001FF
